:020000040000FA
:100000000C945E000C9486000C9486000C94860080
:100010000C9486000C9486000C9486000C94860048
:100020000C9486000C9486000C9486000C94860038
:100030000C9486000C9486000C9486000C94860028
:100040000C9437080C9486000C94A7080C94810833
:100050000C9486000C9486000C9486000C94860008
:100060000C94D9080C9486000000000800020100DE
:100070000003040700000000000000000000000072
:10008000250028002B0000000000240027002A0083
:10009000040404040404040402020202020203032E
:1000A0000303030301020408102040800102040836
:1000B0001020010204081020F809F90C11241FBEB9
:1000C000CFEFD8E0DEBFCDBF11E0A0E0B1E0ECE4BF
:1000D000F4E202C005900D92A839B107D9F723E0E8
:1000E000A8E9B1E001C01D92A731B207E1F710E025
:1000F000CDE5D0E004C02197FE010E940A10CC3566
:10010000D107C9F70E94420A0C9419120C940000FE
:100110000895089590E0FC01EC55FF4F249180571D
:100120009F4FFC018491882399F090E0880F991FDC
:10013000FC01EA57FF4FA591B491FC01E458FF4F31
:10014000859194918FB7F894EC91E22BEC938FBF4B
:10015000089590E0FC01E859FF4F2491FC01EC5513
:10016000FF4F3491FC01E057FF4FE491EE23C9F0BB
:10017000222339F0233001F1A8F4213019F1223083
:1001800029F1F0E0EE0FFF1FE458FF4FA591B49165
:100190008FB7F894EC91611126C030953E233C93C3
:1001A0008FBF08952730A9F02830C9F0243049F7CF
:1001B000809180008F7D03C0809180008F77809335
:1001C0008000DFCF84B58F7784BDDBCF84B58F7D92
:1001D000FBCF8091B0008F778093B000D2CF809119
:1001E000B0008F7DF9CF3E2BDACF3FB7F8948091E6
:1001F000DD019091DE01A091DF01B091E00126B513
:10020000A89B05C02F3F19F00196A11DB11D3FBF4E
:10021000BA2FA92F982F8827BC01CD01620F711D1D
:10022000811D911D42E0660F771F881F991F4A9517
:10023000D1F708958F929F92AF92BF92CF92DF92A3
:10024000EF92FF924B015C010E94F5006B017C0173
:100250000E94F5006C197D098E099F09683E734064
:1002600081059105A8F321E0821A9108A108B1083F
:1002700088EEC80E83E0D81EE11CF11C81149104A5
:10028000A104B10429F7FF90EF90DF90CF90BF90C9
:10029000AF909F908F9008950895AF92BF92CF92A4
:1002A000DF92EF92FF920F931F93CF93DF936C0136
:1002B0007B018B01040F151FEB015E01AE18BF0817
:1002C000C017D10759F06991D601ED91FC910190C9
:1002D000F081E02DC6010995892B79F7C501DF91E1
:1002E000CF911F910F91FF90EF90DF90CF90BF9033
:1002F000AF900895FC01538D448D252F30E0842F5D
:1003000090E0821B930B541710F0CF96089501973D
:100310000895FC01918D828D981761F0A28DAE0F2A
:10032000BF2FB11D5D968C91928D9F5F9F73928FB1
:1003300090E008958FEF9FEF08952FB7F894809184
:10034000070290910802A0910902B0910A022FBF02
:100350008093630290936402A0936502B093660257
:100360008BE592E00E94890197FF26C02FB7F89491
:100370008091070290910802A0910902B0910A02AF
:100380002FBF4091630250916402609165027091A9
:100390006602841B950BA60BB70B40915F02509130
:1003A0006002609161027091620284179507A6074E
:1003B000B707B0F28FEF9FEF0895FC01918D828D0A
:1003C000981731F0828DE80FF11D858D90E008952A
:1003D0008FEF9FEF0895FC01918D228D892F90E082
:1003E000805C9F4F821B91098F73992708958BE53D
:1003F00092E00E94EB0121E0892B09F420E0822F9A
:10040000089580E090E0892B29F00E94F701811186
:100410000C9400000895FC01A48DA80FB92FB11D04
:10042000A35ABF4F2C91848D90E001968F7399272A
:10043000848FA689B7892C93A089B1898C91837008
:1004400080648C93938D848D981306C00288F38901
:10045000E02D80818F7D80830895EF92FF920F932E
:100460001F93CF93DF93EC0181E0888F9B8D8C8D60
:1004700098131AC0E889F989808185FF15C09FB754
:10048000F894EE89FF896083E889F9898081837017
:10049000806480839FBF81E090E0DF91CF911F91C6
:1004A0000F91FF90EF900895F62E0B8D10E00F5FE7
:1004B0001F4F0F731127E02E8C8D8E110CC00FB6BD
:1004C00007FCFACFE889F989808185FFF5CFCE0155
:1004D0000E940B02F1CFEB8DEC0FFD2FF11DE35AC3
:1004E000FF4FF0829FB7F8940B8FEA89FB898081D8
:1004F0008062CFCFCF93DF93EC01888D8823B9F052
:10050000AA89BB89E889F9898C9185FD03C080811E
:1005100086FD0DC00FB607FCF7CF8C9185FFF2CF9B
:10052000808185FFEDCFCE010E940B02E9CFDF91E4
:10053000CF9108952091B901260F3327331F21321F
:100540003105ECF420913102FC0190E080E0243090
:1005500069F082E00895A091B9012191AC0147565C
:100560005E4FA40FB52FB11D2C930196861798F3FB
:100570008091B901680F6093B90180E0089581E02E
:1005800008951092310281E08093300210920B02A4
:1005900061E082E10E94A90061E083E10E94A9007C
:1005A000E9EBF0E080818E7F808380818D7F808386
:1005B00088E48093B80085E48093BC00089510928D
:1005C000E6011092E5011092380210925A020E9440
:1005D000C10288E890E09093E4018093E30189E808
:1005E00090E09093E2018093E1010895CF93DF932F
:1005F00091E0909398018823B9F0C091B800D09110
:10060000BA008091BC008A7B8093BC0060E082E1EC
:100610000E94A90060E083E10E94A9000E94C1023B
:10062000D093BA00C093B800DF91CF9108958F9214
:100630009F92AF92BF92CF92DF92EF92FF920F9371
:100640001F93CF93DF93D0915A02D13208F0D7C0D5
:10065000182FC09159020E94F5006B017C01809116
:10066000310281116BC082E080933102109330021D
:100670008FEF80932F0210922E02D0932D02A9E3C8
:10068000B2E0EDE0F2E080E0D81391C010920C02ED
:1006900080910C02CC0FC82BC0930C0280910B02EE
:1006A000813009F088C010920B020E94F5006B01A6
:1006B0007C0180910C028093BB0080913302909169
:1006C0003402A0913502B0913602892B8A2B8B2BF4
:1006D000A1F00E94F50000913302109134022091A4
:1006E0003502309136026C197D098E099F09061773
:1006F00017072807390708F442C08091BC0083FD22
:10070000D8CF85EC8093BC000E94F5006B017C0182
:1007100080913102823009F450C080912F028F3FC6
:1007200009F46FC080912F02803209F46CC080916F
:100730002F02803309F469C084E026C0809133021F
:1007400090913402A0913502B0913602892B8A2B08
:100750008B2B09F484CF0E94F50080903302909097
:100760003402A0903502B09036026C197D098E09D2
:100770009F0986169706A806B90608F070CF8091E3
:1007800032020E94F60285E01092380210925A025C
:1007900010923702DF91CF911F910F91FF90EF9050
:1007A000DF90CF90BF90AF909F908F9008959D91D4
:1007B00091938F5F69CF85EEA5CF809133029091A1
:1007C0003402A0913502B0913602892B8A2B8B2BF3
:1007D00009F49ECF0E94F50000913302109134027B
:1007E00020913502309136026C197D098E099F09DE
:1007F000061717072807390708F08ACFC0CF81E00E
:10080000C3CF80E0C1CF82E0BFCF83E0BDCF1F93D5
:10081000CF93DF93EA01122FDC0111968D919C9109
:10082000DC01ED91FC910280F381E02D0995C81760
:10083000D90729F4812F0E94170391E0811190E0DC
:10084000892FDF91CF911F910895CF93DF93EC0112
:100850008B818823A1F0888191E090933702809367
:1008600059021092380210925A0281E00E94170336
:1008700091E0811190E0892FDF91CF9108950E943E
:10088000DF0281E08B83CE010E942504982F811125
:10089000E2CFF1CF0895E091E6018091E501E817FC
:1008A00030F4F0E0E951FE4F808190E008958FEF41
:1008B0009FEF08959091E6018091E5012FEF3FEFC2
:1008C000981748F4E92FF0E0E951FE4F208130E01D
:1008D0009F5F9093E601C90108958091E501909191
:1008E000E601891B990B0895CF92DF92EF92FF9258
:1008F0000F931F93CF93DF937C01CB018A0120914B
:100900003702222389F0EB016B01C40ED51ECC15F2
:10091000DD0569F06991D701ED91FC910190F081BD
:10092000E02DC7010995F3CF642F0E949A02C801F8
:10093000DF91CF911F910F91FF90EF90DF90CF90BB
:100940000895CF93DF931F92CDB7DEB769832091CF
:1009500037022223F9F020915A02203258F021E088
:1009600030E0FC013383228390E080E00F90DF9140
:10097000CF91089580913802E82FF0E0E75CFD4FB9
:10098000998190838F5F8093380280935A0281E02F
:1009900090E0ECCF61E0CE0101960E949A02F7CF81
:1009A00090E080E008951F93CF93DF9300D000D0B4
:1009B0001F92CDB7DEB7880F880F8A5F89831A82AE
:1009C0001B826C837D8380910D0390910E03FC014B
:1009D0002481358125303105E0F0208111E010932C
:1009E0003702209359021092380210925A0221E0E5
:1009F00045E050E0BE016F5F7F4F0E9407048127F2
:100A00000F900F900F900F900F90DF91CF911F914B
:100A1000089581E0F5CF70E060E084E00E94D304A7
:100A200070E060E085E00C94D304CF93DF9300D0B6
:100A3000CDB7DEB789836A8380910D0390910E0351
:100A4000FC01248135812230310590F0208131E094
:100A500030933702209359021092380210925A02B2
:100A600021E042E050E0BE016F5F7F4F0E9407042B
:100A70000F900F90DF91CF9108952F923F924F9258
:100A80005F926F927F928F929F92AF92BF92CF921E
:100A9000DF92EF92FF920F931F93CF93DF931F92FA
:100AA000CDB7DEB76B017C0120E030E040E85FE3CA
:100AB0000E94420D87FDECC020E030EC4AE555E491
:100AC000C701B6010E94FE0F18160CF4E8C0609131
:100AD0000F037091100380911103909112030E94F3
:100AE000470D4B015C0120E030E040E855E4C701D0
:100AF000B6010E94A80D9B01AC01C501B4010E9482
:100B00005D0F20E030E040E05FE30E94F10E20E066
:100B100030E040E85FE30E94F00E6B017C0120E0D2
:100B200030E040E450E40E94420D87FDC0C020E068
:100B300030E04FE753E4C701B6010E94FE0F1816DC
:100B40000CF4BBC0C701B6010E94CF0F962E1982CC
:100B5000E0900D03F0900E03D70114968D919C91B7
:100B60001597892B09F41AC18C9191E09093370263
:100B7000809359021092380210925A0220E041E00C
:100B800050E0BE016F5F7F4FC7010E9407048823BA
:100B900009F404C18824839485EC382EF701C480BD
:100BA000D58001E0C114D10409F400E0A02EB12CDD
:100BB000D7012C900E94F5002B013C01809131025D
:100BC000811182C0102F8092310200933002BFEF5A
:100BD000B0932F0210922E028FEF800F80932D0280
:100BE00080920C0280910C02220C282A20920C0286
:100BF00080910B02813009F0A8C010920B020E9474
:100C0000F5002B013C0180910C028093BB00809188
:100C1000330290913402A0913502B0913602892BB3
:100C20008A2B8B2BA1F00E94F5002091330230918A
:100C300034024091350250913602641975098609D3
:100C40009709261737074807590708F45EC08091AF
:100C5000BC0083FDD8CF3092BC000E94F5002B0170
:100C60003C0180913102813009F473C080912E02E1
:100C7000801710F410912E02EDE0F2E0A7EEB1E043
:100C800080E0811709F446C091919D938F5FF9CF61
:100C9000C12CD12C40E8E42E4FE3F42E18CFC12C08
:100CA00030ECD32E3AE5E32E35E4F32E10CFC12CF1
:100CB000D12C20E4E22EFE2C45CFC12CD12C9FE775
:100CC000E92E93E4F92E3ECF8091330290913402C5
:100CD000A0913502B0913602892B8A2B8B2B09F417
:100CE0006DCF0E94F5002091330230913402409183
:100CF000350250913602641975098609970926173D
:100D000037074807590708F059CF809132020E94EF
:100D1000F60210E01092E6011093E5011A151B048B
:100D2000E9F590E080E08A159B05A8F5D7011196BA
:100D30008D919C91DC01ED91FC910284F385E02D75
:100D40000995898381E090E0EECFE5EEE093BC0069
:100D500084CF8091330290913402A0913502B091FA
:100D60003602892B8A2B8B2B09F47BCF0E94F5004E
:100D70002091330230913402409135025091360275
:100D8000641975098609970926173707480759070F
:100D900008F067CFBACFCD2809F400CF1981612FB1
:100DA0006F76606180E00E941505692D8EEF0E94CC
:100DB0001505612F80E00E94150565E070E080E078
:100DC00090E00E941A01612F606A80E00E94150580
:100DD0000F90DF91CF911F910F91FF90EF90DF90D7
:100DE000CF90BF90AF909F908F907F906F905F90CB
:100DF0004F903F902F900895FC0180819181009742
:100E000011F00C94AC100895CF93DF93FC01019086
:100E10000020E9F73197AF01481B590BBC018BE566
:100E200092E00E944D01EC0142E050E06AE271E084
:100E30008BE592E00E944D018C0F9D1FDF91CF91B9
:100E40000895FC0144815581809108039091090324
:100E50008417950780F08091040390910503009713
:100E600051F0608171816115710529F00E940B12AA
:100E700021E0892B09F020E0822F08950F931F9322
:100E8000CF93DF93EC0188819981009759F02A81F3
:100E90003B812617370730F081E0DF91CF911F911A
:100EA0000F9108958B016F5F7F4F0E94351100975E
:100EB00059F0998388831B830A832C813D81232BDE
:100EC00059F7FC011082E8CF80E0E7CFEF92FF9264
:100ED0000F931F93CF93DF93EC017B018A01BA013B
:100EE0000E943E0728813981811114C021153105E6
:100EF00019F0C9010E94AC10198218821D821C824F
:100F00001B821A82CE01DF91CF911F910F91FF902A
:100F1000EF9008951D830C83B701C9010E9404124C
:100F2000F1CFFC0111821082138212821582148289
:100F3000FB0101900020E9F73197AF01461B570BE9
:100F40000C946607CF92DF92EF92FF920F931F935C
:100F5000CF93DF93EC016B017A014617570720F41A
:100F60008D2D6A01E62EF82E6CE271E0CE010E9412
:100F700091070091080310910903C016D10640F5AE
:100F8000E016F10608F48701E0910403F0910503EF
:100F9000E00FF11FF080108260910403709105034F
:100FA0006C0D7D1D61157105E9F0FB0101900020BC
:100FB000E9F73197AF01461B570BCE010E94660738
:100FC0008091040390910503080F191FF801F08226
:100FD000CE01DF91CF911F910F91FF90EF90DF90A5
:100FE000CF90089588819981009711F00E94AC10EC
:100FF000198218821D821C821B821A82E1CF85ED24
:101000008093BC008091330290913402A09135020C
:10101000B09136020796A11DB11D23E0B695A795A4
:10102000979587952A95D1F72091BC0024FD03C0A0
:101030001092310208954091330250913402609130
:10104000350270913602452B462B472B69F30097EA
:10105000A105B10541F02AE22A95F1F700C00197F8
:10106000A109B109E1CF809132020C94F6021F92DE
:101070000F920FB60F9211242F933F938F939F934C
:10108000AF93BF938091070290910802A09109024B
:10109000B0910A023091DC0123E0230F2D3758F57F
:1010A0000196A11DB11D2093DC018093070290934E
:1010B0000802A0930902B0930A028091DD01909189
:1010C000DE01A091DF01B091E0010196A11DB11DEB
:1010D0008093DD019093DE01A093DF01B093E001E6
:1010E000BF91AF919F918F913F912F910F900FBE24
:1010F0000F901F90189526E8230F0296A11DB11D91
:10110000D2CF1F920F920FB60F9211242F933F93BD
:101110004F935F936F937F938F939F93AF93BF93FF
:10112000EF93FF938BE592E00E940B02FF91EF910A
:10113000BF91AF919F918F917F916F915F914F91EF
:101140003F912F910F900FBE0F901F9018951F92F7
:101150000F920FB60F9211242F938F939F93EF93BB
:10116000FF93E0916B02F0916C028081E09171023B
:10117000F091720282FD1BC09081809174028F5F9A
:101180008F7320917502821741F0E0917402F0E0B4
:10119000E55AFD4F958F80937402FF91EF919F91D7
:1011A0008F912F910F900FBE0F901F9018958081F7
:1011B000F4CF1F920F920FB60F9211242F933F93EB
:1011C0004F935F936F937F938F939F93AF93BF934F
:1011D000EF93FF938091B900887F803609F44AC06D
:1011E000F0F5883209F4A7C018F5803109F49BC0E6
:1011F000B8F4882309F4F9C0883009F494C0FF9149
:10120000EF91BF91AF919F918F917F916F915F917E
:101210004F913F912F910F900FBE0F901F901895F7
:10122000883109F488C0803251F780932F0214C0AE
:10123000803409F49DC040F48033B9F38833F9F663
:1012400080932F0285ECB0C0803509F485C08835C5
:1012500009F496C0883499F60E94FF07D0CF8839E8
:1012600009F48CC038F5883729F050F4883611F02D
:10127000803729F683E0809331021092DB0157C05A
:10128000883809F47BC0803919F0803809F0B7CF6D
:101290008091DB01803208F071C0E091DB0181E0D8
:1012A0008E0F8093DB018091BB00F0E0E554FE4F90
:1012B00080833DC0803B39F0E0F4803A09F479C086
:1012C000883A09F09CCF84E0809331021092BA01F1
:1012D0001092B901E091E301F091E4010995809148
:1012E000B90181110FC081E08093B9011092990179
:1012F00009C0803C09F4A6CF883C09F4A3CF883B01
:1013000009F07DCFE091BA0181E08E0F8093BA01A0
:10131000F0E0E756FE4F80818093BB009091BA01C8
:101320008091B90129C080910C028093BB0085ECAB
:101330008093BC0064CF90912E0280912D0298176B
:1013400058F5E0912E0281E08E0F80932E02F0E09E
:10135000E35FFD4F8081E9CFE0912E0281E08E0FA7
:1013600080932E028091BB00F0E0E35FFD4F80830D
:1013700090912E0280912D029817C8F285E8D8CF5F
:10138000E0912E0281E08E0F80932E028091BB00AF
:10139000F0E0E35FFD4F80838091300281115CCFEC
:1013A00081E080930B0284EA8093BC0010923102AA
:1013B00026CF85EC8093BC00109231028091DB0136
:1013C000803230F4E091DB01F0E0E554FE4F108212
:1013D0006091DB0170E0E091E101F091E2018BEBC3
:1013E00091E009951092DB010ACF10922F0234CFC1
:1013F000EBE5F2E01382128288EE93E0A0E0B0E029
:1014000084839583A683B7832AE031E031832083E8
:1014100025EC30E03587248724EC30E037872687B9
:1014200020EC30E0318B208B21EC30E0338B228BB1
:1014300022EC30E0358B248B26EC30E0378B268B8A
:10144000118E128E138E148EE8EFF2E01382128248
:1014500084839583A683B7838CE191E09183808315
:10146000AAE0B3E080E48C931296FC93EE9311977C
:1014700014961C921E9213976CE271E084E093E044
:101480000C949107CF93DF93CDB7DEB728970FB6B3
:10149000F894DEBF0FBECDBF789484B5826084BD62
:1014A00084B5816084BD85B5826085BD85B5816068
:1014B00085BD80916E00816080936E0010928100E6
:1014C00080918100826080938100809181008160A1
:1014D0008093810080918000816080938000809162
:1014E000B10084608093B1008091B00081608093EE
:1014F000B00080917A00846080937A0080917A00B5
:10150000826080937A0080917A00816080937A0073
:1015100080917A00806880937A001092C100E091F7
:101520006B02F0916C0282E08083E0916702F0919F
:1015300068021082E0916902F0916A0280E1808382
:1015400010927302E0916F02F091700286E0808346
:10155000E0916D02F0916E02808180618083E09164
:101560006D02F0916E02808188608083E0916D024F
:10157000F0916E02808180688083E0916D02F0912D
:101580006E0280818F7D808382E00E948A0083E0EA
:101590000E948A0088E00E948A0089E00E948A00F6
:1015A0000E94DF0280910D0390910E03009711F0CD
:1015B0000E94AC1086E090E00E9410108C01809197
:1015C0000B0390910C0320910A03F801208392836E
:1015D0008183138280E290E09583848310930E03CD
:1015E00000930D030E94DF0281E0F8018383C801AC
:1015F0000E9425048823E1F060E880E00E94150540
:101600006AE070E080E090E00E941A0180E498E7D0
:10161000ADE7B1E080930F0390931003A093110303
:10162000B093120360E070E08AE794E40E943D0505
:1016300060E070E088E492E40E943D050E940B05A2
:101640008DE291E00E9404078AE491E00E94040781
:1016500084EB482E512C612C712C812C912C54013F
:101660008A948BE592E00E94EB01892B09F4B1C0CA
:101670006CE271E0CE0101960E9491070E949D01EB
:1016800097FD1EC08A309105D9F08F8318860D8191
:101690001E810F5F1F4FB801CE0101960E943E07C9
:1016A000882361F329813A818D819E81BE01695F22
:1016B0007F4F820F931F0E9404121E830D83DECF83
:1016C0008091040390910503009709F491C069810A
:1016D0007A816115710509F489C040910603509122
:1016E00007032D813E814217530708F47FC00E94F3
:1016F00004128D819E8190930903809308031E82BA
:101700001D82CE0101960E94FC06C0900403D09079
:101710000503C114D10449F0009108031091090395
:1017200076010115110509F07BC06BE571E0CE0172
:1017300001960E949107CE0101960E942107182F61
:10174000CE0101960E94FC06112309F4A5C0409128
:1017500008035091090363E070E0CE0101960E94F6
:10176000A20789819A8100E010E0009719F00E9499
:10177000FD0C8B01CE0101960E94FC06612F609545
:10178000661F6627661F82E00E94A900612F661F00
:101790006627661F83E00E94A900D80117FF03C0D7
:1017A000B195A195B109AF3FB10519F014F0AFEFB4
:1017B000B0E02FEF3FE00E940310A50194010E94CA
:1017C000690EB90184E00E94D3048EE591E00E9485
:1017D000040780E090E0892B09F443CF0E94F701D1
:1017E000882309F43ECF0E9400003BCF0E94AC103A
:1017F00089819A8190930503809304038B819C8156
:1018000090930703809306038D819E819093090333
:10181000809308031A8219821C821B8270CF710187
:101820001701FFEF2F1A3F0AF7018081082E000CE5
:10183000990B0E94390D892B91F7015011090C0D5C
:101840001D1DF8018081082E000C990B0E94390D96
:10185000892B31F00E151F0518F001501109F1CF39
:10186000A8014F5F5F4F4E195F09509309034093E2
:101870000803CE14DF0420F4B701C6010E94F21160
:10188000E0910403F091050380910803909109030E
:10189000E80FF91F108249CF68E671E0CE0101968A
:1018A0000E949107CE0101960E942107182FCE01B8
:1018B00001960E94FC06112309F441C040910803DF
:1018C0005091090363E070E0CE0101960E94A207E7
:1018D00089819A8100E010E0009719F00E94FD0CC8
:1018E0008B01CE0101960E94FC06612F6095661F58
:1018F0006627661F88E00E94A900612F661F662781
:10190000661F89E00E94A900D80117FF03C0B195A6
:10191000A195B109AF3FB10519F014F0AFEFB0E0F8
:101920002FEF3FE00E940310A50194010E94690E71
:10193000B90185E00E94D3048BE691E048CF65E7CA
:1019400071E0CE0101960E949107CE0101960E949E
:101950002107182FCE0101960E94FC064091080332
:1019600050910903112391F166E070E0CE010196D8
:101970000E94A20789819A81C12CD12C76010097FF
:1019800019F00E94FD0C6B01CE0101960E94FC062D
:10199000D601A53BB10514F0A4EBB0E0B7FF02C03F
:1019A000B0E0A0E021E731E00E940310A301920122
:1019B0000E94690ECA01B90165587F4F8F4F9F4F32
:1019C00080E00E94D3048BE791E001CF452B09F41E
:1019D00000CF64E871E080910403909105030E94B8
:1019E000FB11892B09F0F5CE0E940B0589E891E0E7
:1019F000EECE84E093E00C94FC061F93FC01992743
:101A00008827BC01E89411911032E9F3193010F0E5
:101A10001E30C8F31B3251F01D3249F4689406C0E1
:101A20000E94240D610F711D811D911D1191105394
:101A30001A30B0F33EF490958095709561957F4F84
:101A40008F4F9F4F1F910895592F482F372F262FC3
:101A5000660F771F881F991F660F771F881F991FB2
:101A6000620F731F841F951F660F771F881F991FB2
:101A7000089591110C94150E803219F089508550FB
:101A8000C8F708950E94840D08F481E00895E89451
:101A900009C097FB3EF490958095709561957F4FB6
:101AA0008F4F9F4F9923A9F0F92F96E9BB27939564
:101AB000F695879577956795B795F111F8CFFAF474
:101AC000BB0F11F460FF1BC06F5F7F4F8F4F9F4FA5
:101AD00016C0882311F096E911C0772321F09EE803
:101AE000872F762F05C0662371F096E8862F70E069
:101AF00060E02AF09A95660F771F881FDAF7880F43
:101B00009695879597F90895990F0008550FAA0B98
:101B1000E0E8FEEF16161706E807F907C0F0121600
:101B20001306E407F50798F0621B730B840B950B03
:101B300039F40A2661F0232B242B252B21F4089558
:101B40000A2609F4A140A6958FEF811D811D0895F5
:101B50000E94BB0D0C942F0E0E94210E38F00E94A3
:101B6000280E20F0952311F00C94180E0C941E0EE4
:101B700011240C94630E0E94400E70F3959FC1F3E4
:101B8000950F50E0551F629FF001729FBB27F00D2B
:101B9000B11D639FAA27F00DB11DAA1F649F662780
:101BA000B00DA11D661F829F2227B00DA11D621FCF
:101BB000739FB00DA11D621F839FA00D611D221F89
:101BC000749F3327A00D611D231F849F600D211D6D
:101BD000822F762F6A2F11249F5750409AF0F1F0F0
:101BE00088234AF0EE0FFF1FBB1F661F771F881F59
:101BF00091505040A9F79E3F510580F00C94180E6B
:101C00000C94630E5F3FE4F3983ED4F3869577958A
:101C10006795B795F795E7959F5FC1F7FE2B880FFE
:101C2000911D9695879597F9089599278827089586
:101C300097F99F6780E870E060E008959FEF80EC7F
:101C4000089500240A941616170618060906089522
:101C500000240A9412161306140605060895092E88
:101C60000394000C11F4882352F0BB0F40F4BF2BF7
:101C700011F460FF04C06F5F7F4F8F4F9F4F089537
:101C800057FD9058440F551F59F05F3F71F047952D
:101C9000880F97FB991F61F09F3F79F08795089512
:101CA000121613061406551FF2CF4695F1DF08C031
:101CB000161617061806991FF1CF8695710561054E
:101CC00008940895E894BB2766277727CB0197F9F6
:101CD0000895052E97FB1EF400940E94800E57FD78
:101CE00007D00E94BF0E07FC03D04EF40C94800E68
:101CF00050954095309521953F4F4F4F5F4F089538
:101D000090958095709561957F4F8F4F9F4F089567
:101D10002F923F924F925F926F927F928F929F92FB
:101D2000AF92BF92CF92DF92EF92FF920F931F93E9
:101D3000CF93DF93CDB7DEB7CA1BDB0B0FB6F8949A
:101D4000DEBF0FBECDBF09942A88398848885F84DA
:101D50006E847D848C849B84AA84B984C884DF804B
:101D6000EE80FD800C811B81AA81B981CE0FD11D2F
:101D70000FB6F894DEBF0FBECDBFED010895A1E20E
:101D80001A2EAA1BBB1BFD010DC0AA1FBB1FEE1FF5
:101D9000FF1FA217B307E407F50720F0A21BB30B40
:101DA000E40BF50B661F771F881F991F1A9469F7BC
:101DB00060957095809590959B01AC01BD01CF0118
:101DC0000895A29FB001B39FC001A39F700D811D14
:101DD0001124911DB29F700D811D1124911D089534
:101DE0005058BB27AA270E94080F0C942F0E0E9460
:101DF000210E38F00E94280E20F039F49F3F19F48C
:101E000026F40C941E0E0EF4E095E7FB0C94180ECD
:101E1000E92F0E94400E58F3BA1762077307840730
:101E2000950720F079F4A6F50C94620E0EF4E09577
:101E30000B2EBA2FA02D0B01B90190010C01CA0184
:101E4000A0011124FF27591B99F0593F50F4503E2F
:101E500068F11A16F040A22F232F342F4427585F21
:101E6000F3CF469537952795A795F0405395C9F739
:101E70007EF41F16BA0B620B730B840BBAF09150F1
:101E8000A1F0FF0FBB1F661F771F881FC2F70EC090
:101E9000BA0F621F731F841F48F487957795679563
:101EA000B795F7959E3F08F0B0CF9395880F08F04F
:101EB0009927EE0F9795879508950E94710F0C94BE
:101EC0002F0E0E94280E58F00E94210E40F029F497
:101ED0005F3F29F00C94180E51110C94630E0C9472
:101EE0001E0E0E94400E68F39923B1F3552391F31F
:101EF000951B550BBB27AA2762177307840738F079
:101F00009F5F5F4F220F331F441FAA1FA9F335D0D5
:101F10000E2E3AF0E0E832D091505040E695001C89
:101F2000CAF72BD0FE2F29D0660F771F881FBB1F43
:101F3000261737074807AB07B0E809F0BB0B802D21
:101F4000BF01FF2793585F4F3AF09E3F510578F04D
:101F50000C94180E0C94630E5F3FE4F3983ED4F398
:101F6000869577956795B795F7959F5FC9F7880F21
:101F7000911D9695879597F90895E1E0660F771F73
:101F8000881FBB1F621773078407BA0720F0621B04
:101F9000730B840BBA0BEE1F88F7E09508950E942F
:101FA000480E88F09F5798F0B92F9927B751B0F095
:101FB000E1F0660F771F881F991F1AF0BA95C9F7CD
:101FC00014C0B13091F00E94620EB1E008950C94FB
:101FD000620E672F782F8827B85F39F0B93FCCF3AE
:101FE000869577956795B395D9F73EF4909580954A
:101FF000709561957F4F8F4F9F4F08950E94840D7C
:1020000008F48FEF08950E94E10EB7FF0895821B38
:10201000930B0895EE0FFF1F0590F491E02D0994A6
:102020000F931F93CF93DF938230910510F482E0DA
:1020300090E0E0911503F091160330E020E0B0E06D
:10204000A0E0309799F42115310509F44AC0281B06
:10205000390B24303105D8F58A819B8161157105D2
:1020600089F1FB0193838283FE0111C0408151817C
:102070000281138148175907E0F04817590799F46E
:10208000109761F012960C93129713961C93329648
:10209000CF01DF91CF911F910F9108950093150308
:1020A00010931603F4CF2115310551F04217530751
:1020B00038F0A901DB019A01BD01DF01F801C1CFB0
:1020C000EF01F9CF9093160380931503CDCFFE0156
:1020D000E20FF31F819391932250310939832883B2
:1020E000D7CF2091130330911403232B41F4209177
:1020F00002013091030130931403209313032091C4
:102100000001309101012115310541F42DB73EB791
:102110004091040150910501241B350BE0911303FC
:10212000F0911403E217F307A0F42E1B3F0B2817BE
:10213000390778F0AC014E5F5F4F2417350748F040
:102140004E0F5F1F50931403409313038193919399
:102150009FCFF0E0E0E09CCFCF93DF930097E9F0D2
:10216000FC01329713821282A0911503B0911603DD
:10217000ED0130E020E01097A1F420813181820F41
:10218000931F20911303309114032817390709F086
:1021900061C0F0931403E0931303DF91CF9108958E
:1021A000EA01CE17DF07E8F54A815B819E01411500
:1021B0005105B1F7E901FB83EA8349915991C40FB5
:1021C000D51FEC17FD0761F4808191810296840F81
:1021D000951FE90199838883828193819B838A83F8
:1021E000F0E0E0E012968D919C9113970097B9F57D
:1021F0002D913C911197CD010296820F931F209152
:102200001303309114032817390739F6309751F525
:102210001092160310921503B0931403A0931303A6
:10222000BCCFD383C28340815181840F951FC817CF
:10223000D90761F44E5F5F4F88819981480F591F1C
:10224000518340838A819B81938382832115310549
:1022500009F0B0CFF0931603E09315039ECFFD0174
:10226000DC01C0CF13821282D7CFB0E0A0E0EBE355
:10227000F1E10C948A0E8C01009751F4CB010E947D
:1022800010108C01C801CDB7DEB7E0E10C94A60EAA
:10229000FC01E60FF71F9C0122503109E217F307FA
:1022A00008F49DC0D901CD91DC911197C617D707CD
:1022B00098F0C530D10530F3CE0104978617970703
:1022C00008F3C61BD70B2297C193D1936D937C93D0
:1022D000CF010E94AC10D6CF5B01AC1ABD0A4C01F5
:1022E0008C0E9D1EA0911503B0911603512C412C0C
:1022F000F12CE12C109731F5809113039091140388
:102300008815990509F05CC04616570608F058C0B4
:102310008091000190910101009741F48DB79EB723
:102320004091040150910501841B950BE817F907B2
:1023300008F055C0F0931403E0931303F90171837F
:102340006083A0CF8D919C91119712966C901297FB
:1023500013967C901397A815B90559F56C0142E0C6
:10236000C40ED11CCA14DB0420F1AC014A195B096C
:10237000DA011296159780F062827382518340834E
:10238000D9016D937C93E114F10471F0D701139698
:10239000FC93EE93129776CF22968C0F9D1FF90136
:1023A00091838083F301EFCFF0931603E09315033D
:1023B00069CF4816590608F42C017D01D3019ACF44
:1023C000CB010E9410107C01009749F0AE01B801CA
:1023D0000E94F211C8010E94AC10870153CF10E097
:1023E00000E050CFFB01DC0102C001900D92415092
:1023F0005040D8F70895FB01DC018D9101908019C0
:102400000110D9F3990B0895FB01DC0101900D92A5
:102410000020E1F70895FB01DC014150504030F00D
:102420008D910190801919F40020B9F7881B990B40
:10243000089510E0CDE5D0E004C0FE010E940A102E
:102440002196CE35D107C9F7F894FFCF00001703C6
:102450008000000000002D024D017A017A02EB019C
:102460008901DD0100000000A1047404D0044A04C5
:102470006D045A044B040D0A00546573742064758E
:1024800020736572766F6D6F7465757220656E204E
:10249000636F75727300526F626F7420546573744A
:1024A000205265616479006D31004D6F746F723137
:1024B000204F4B006D32004D6F746F7232204F4BC6
:1024C00000736572766F00536572766F204F4B0014
:1024D00073746F70004D6F746F72732073746F70CC
:0424E00070656400BF
:107E0000112484B714BE81FFF0D085E080938100F7
:107E100082E08093C00088E18093C10086E0809377
:107E2000C20080E18093C4008EE0C9D0259A86E02C
:107E300020E33CEF91E0309385002093840096BBD3
:107E4000B09BFECF1D9AA8958150A9F7CC24DD24C4
:107E500088248394B5E0AB2EA1E19A2EF3E0BF2EE7
:107E6000A2D0813461F49FD0082FAFD0023811F036
:107E7000013811F484E001C083E08DD089C08234E0
:107E800011F484E103C0853419F485E0A6D080C0E4
:107E9000853579F488D0E82EFF2485D0082F10E0AE
:107EA000102F00270E291F29000F111F8ED06801E7
:107EB0006FC0863521F484E090D080E0DECF843638
:107EC00009F040C070D06FD0082F6DD080E0C81688
:107ED00080E7D80618F4F601B7BEE895C0E0D1E017
:107EE00062D089930C17E1F7F0E0CF16F0E7DF06D8
:107EF00018F0F601B7BEE89568D007B600FCFDCFD4
:107F0000A601A0E0B1E02C9130E011968C91119780
:107F100090E0982F8827822B932B1296FA010C0160
:107F200087BEE89511244E5F5F4FF1E0A038BF0790
:107F300051F7F601A7BEE89507B600FCFDCF97BE46
:107F4000E89526C08437B1F42ED02DD0F82E2BD052
:107F50003CD0F601EF2C8F010F5F1F4F84911BD097
:107F6000EA94F801C1F70894C11CD11CFA94CF0C13
:107F7000D11C0EC0853739F428D08EE10CD085E9AC
:107F80000AD08FE07ACF813511F488E018D01DD067
:107F900080E101D065CF982F8091C00085FFFCCF94
:107FA0009093C60008958091C00087FFFCCF809118
:107FB000C00084FD01C0A8958091C6000895E0E648
:107FC000F0E098E1908380830895EDDF803219F02E
:107FD00088E0F5DFFFCF84E1DECF1F93182FE3DFCA
:107FE0001150E9F7F2DF1F91089580E0E8DFEE27F6
:047FF000FF270994CA
:027FFE00040479
:00000001FF
